S00C00006D61696E2E7372656373
S11300000C9434000C9451000C9451000C94510045
S11300100C9451000C9451000C9451000C94510018
S11300200C9451000C9451000C9451000C94510008
S11300300C9451000C9451000C9451000C945100F8
S11300400C9451000C9451000C9451000C945100E8
S11300500C9451000C9451000C9451000C945100D8
S11300600C9451000C94510011241FBECFEFD8E022
S1130070DEBFCDBF11E0A0E0B1E0ECE6F2E002C0EB
S113008005900D92A232B107D9F721E0A2E2B1E0C6
S113009001C01D92A633B207E1F70E9473000C94CD
S11300A034010C9400009091C00095FFFCCF809324
S11300B0C60080E090E008958091C00087FFFCCFE7
S11300C08091C60090E0089587E690E09093C50083
S11300D08093C4001092C00088E18093C10086E040
S11300E08093C200089587E690E09093C5008093C2
S11300F0C4001092C00088E18093C10086E0809320
S1130100C20082E291E023E530E030932B0120939A
S11301102A012CE530E030932D0120932C0123E0BB
S11301202093250110922F0110922E0190933501F6
S11301308093340190933301809332019093310181
S113014080933001259A2C9A80E090E0C1E0D0E0C1
S11301501C991FC080E090E0EFE3FCE93197F1F7D0
S113016000C000000A96883EF3E09F07F4F51C994E
S113017039C01C9BF1CFCC0FDD1F21968AE090E0A3
S1130180EFE3FCE93197F1F700C000002D981C9BC8
S1130190E1CF893823E192075CF0609132017091DC
S11301A0330180E290E00E94F8008AE090E0E8CF1A
S11301B0893BEBE09E07A4F0C130D10589F0609142
S11301C0320170913301C050DF4F8881082E000C3A
S11301D0990B0E94F8008AE090E0C1E0D0E0D0CF13
S11301E00A96CECFCC0FDD1FC9CF2D9A23B1C1CF34
S11301F00F931F93CF93DF93FB01238121FD03C052
S11302008FEF9FEF2CC022FF16C0468157812481B7
S113021035814217530744F4A081B1819D012F5FBA
S11302203F4F318320838C93268137812F5F3F4F4B
S11302303783268314C08B01EC01FB010084F18514
S1130240E02D0995892BE1F6D80116968D919C91A4
S11302501797019617969C938E931697CE01DF916C
S10F0260CF911F910F910895F894FFCFE7
S113026C2A2A455449414E4D53555257444B474FF6
S113027C4856463F4C3F504A425843595A513F3FC7
S105028C00006C
S9030000FC
