S00C00006D61696E2E7372656373
S11300000C9420010C9435010C9435010C943501A9
S11300100C9435010C9435010C9435010C94350184
S11300200C9435010C9435010C9435010C94350174
S11300300C9435010C9435010C9435010C94350164
S11300400C9435010C9435010C9435010C94350154
S11300500C9435010C9435010C9435010C94350144
S11300600C9435010C9435010000000000000000E0
S1130070000000000000000000000000000000007C
S1130080000000000000000000000000000000006C
S11300900000010001000100010001000100010055
S11300A0010002000200020002000200020003003C
S11300B00300030003000300030004000400040021
S11300C00400040005000500050005000600060004
S11300D006000600070007000700070008000800E4
S11300E0080009000900090009000A000A000A00C2
S11300F00B000B000B000C000C000C000D000D009D
S11301000D000E000E000E000F000F000F00100077
S1130110100011001100110012001200120013004F
S11301201300140014001400150015001600160026
S113013016001700170018001800190019001900FC
S11301401A001A001B001B001C001C001D001D00CF
S11301501E001E001E001F001F00200020002100A2
S11301602100220022002300230024002400250073
S11301702500260026002700270028002800290043
S1130180290029002A002A002B002B002C002C0017
S11301902D002D002E002E002F002F0030003000E7
S11301A031003100320033003400350036003700AE
S11301B0380039003A003B003C003D003E003F005F
S11301C0400041004200430044004500460047000F
S11301D04800490049004A004B004C004D004E00C5
S11301E04E004F0050005100520052005300540082
S11301F05500550056005700570058005900590043
S11302005A005A005B005C005C005D005D005E000B
S11302105E005E005F005F006000600060006100DF
S113022061006100620062006200620063006300BA
S113023063006300630063006300630063006300A2
S113024011241FBECFEFD8E0DEBFCDBF11E0A0E088
S1130250B1E0E2E0FAE002C005900D92A430B107EB
S1130260D9F70E94A8020C94FF040C9400004F924A
S11302705F926F927F928F929F92AF92BF92CF9232
S1130280DF92EF92FF920F931F93CF93DF9300D0EF
S113029000D0CDB7DEB74B015C0129013A0128E754
S11302A030E040E050E00E942C046C53710977FD6B
S11302B0D3C02CE330E0A901461B570B449DC00179
S11302C0459D900D549D900D1124B9010E94180470
S11302D09B014CE384169104A104B10408F499C071
S11302E0D501C401CC97A109B109CC97A105B105E9
S11302F008F445C0D501C40188579109A109B10981
S1130300CC97A105B10508F4CBC0D501C401845B29
S11303109109A109B109CC97A105B10508F4A0C0C0
S113032090EF891A9108A108B1084FEFACE38A163F
S11303309104A104B10408F4D3C0449DC001459DB7
S1130340900D1124E4E6F0E0BF010E941804CB01F3
S1130350770FAA0BBB0B89839A83AB83BC83429F21
S1130360C001439F900D1124BF010E941804CB01CA
S1130370770FAA0BBB0B812C912C540122C04FEF99
S1130380469FC001479F900D112424E630E0B90137
S11303900E941804CB01770FAA0BBB0B89839A83A5
S11303A0AB83BC83449DC001459D900D1124B901CC
S11303B00E9418044B01770FAA08BB0880E090E064
S11303C0DC0129813A814B815C81F80120833183EE
S11303D042835383F70180829182A282B382F60121
S11303E080839183A283B3830F900F900F900F901B
S11303F0DF91CF911F910F91FF90EF90DF90CF90FD
S1130400BF90AF909F908F907F906F905F904F9030
S113041008954FEF449DC001459D900D1124E4E6DD
S1130420F0E0BF010E941804CB01770FAA0BBB0BAD
S113043089839A83AB83BC83429FC001439F900D01
S11304401124BF010E9418044B01770FAA08BB08AE
S113045080E090E0DC01B5CF71956195710929CFF9
S11304604FEF469FC001479F900D112424E630E0D2
S1130470B9010E9418044B01770FAA08BB08449DD8
S1130480C001459D900D1124B9010E941804CB01AF
S1130490770FAA0BBB0B19821A821B821C8291CF85
S11304A04FEF449DC001459D900D1124E4E6F0E01A
S11304B0BF010E9418044B01770FAA08BB08429F92
S11304C0C001439F900D1124BF010E941804CB0169
S11304D0770FAA0BBB0B19821A821B821C8271CF65
S11304E0469FC001479F900D112424E630E0B901D6
S11304F00E941804CB01770FAA0BBB0B89839A8344
S1130500AB83BC83449DC001459D900D1124B9016A
S11305100E941804CB01770FAA0BBB0B812C912CE2
S113052054014FCF8FEF90E0909387008093860023
S113053082EA809380008CE18093810083E8809339
S1130540B00086E08093B10084B18E6084B90895D0
S1130550CF93DF93CDB7DEB760970FB6F894DEBFC5
S11305600FBECDBF8FEF90E09093870080938600FD
S113057082EA809380008CE18093810083E88093F9
S1130580B00086E08093B10084B18E6084B964E6E3
S1130590C62ED12C22242A94312C0E94AE0468E663
S11305A071E00E9418044C01990FAA08BB08C50108
S11305B0B40128E730E040E050E00E942C046C5382
S11305C0710977FD31C18CE390E0861B970B9A8308
S11305D08983240135019CE3491A51086108710893
S11305E0C501B40168577109810991096B837C8342
S11305F08D839E83D501C401845B9109A109B1094E
S11306008F839887A987BA87C501B401605F710990
S1130610810991096B877C878D879E8720E030E074
S113062041E08091840090918500892BD1F7F901F4
S1130630EE0FFF1FE859FF4F85919491988B8F8798
S11306402B3E310509F486C0AF85B889E981FA816A
S1130650AE9FC001AF9F900DBE9F900D11246CE31F
S113066070E00E9418048B01FCE38F169104A1042E
S1130670B10408F453C0BCE34B1651046104710483
S113068008F46AC08B819C81AD81BE81CC97A105A1
S1130690B10508F476C06F81788589859A856C33B5
S11306A071058105910508F488C06B857C858D856D
S11306B09E856C3371058105910508F49AC0AFEFEE
S11306C06F857889A69FC001A79F900D1124B6015C
S11306D00E9418047101E61AF70ABFEFB09FC00127
S11306E0B19F900D1124B6010E9418046095EFEF9C
S11306F0F0E0F0938900E0938800F0928B00E092A0
S11307008A006093B300442321F02F5F3F4F41E000
S113071088CF2150310908F084CF3FCF5FEF569F37
S1130720C001579F900D1124B6010E941804F101D5
S1130730E61BF70BAFEF6F857889A69FC001A79FD3
S1130740900D1124B6010E9418047101E61AF70AEB
S11307506FEFCFCF40E078CF5FEFEF85F8895E9FF2
S1130760C0015F9F900D1124B6010E941804F1018D
S1130770E61BF70B6FEF609FC001619F900D112482
S1130780E1CFEFEFAF85B889EA9FC001EB9F900DF1
S11307901124B6010E941804F101E61BF70B5FEF68
S11307A0509FC001519F900D1124B6010E9418045E
S11307B06095EE24EA94F12C9CCF7FEF709FC001EA
S11307C0719F900D1124B6010E941804F101E61BDB
S11307D0F70B5FEFAF85B8895A9FC0015B9F900DFF
S11307E01124B6010E9418046095EE24EA94F12CB9
S11307F080CF7FEF709FC001719F900D1124B601CF
S11308000E9418047101E61AF70AEFEFAF85B88960
S1130810EA9FC001EB9F900D1124B6010E941804B9
S11308206095EFEFF0E065CF719561957109CBCEDE
S113083097FB072E16F4009407D077FD09D00E9489
S11308404E0407FC05D03EF4909581959F4F089582
S1130850709561957F4F0895A1E21A2EAA1BBB1BC8
S1130860FD010DC0AA1FBB1FEE1FFF1FA217B30778
S1130870E407F50720F0A21BB30BE40BF50B661F8E
S1130880771F881F991F1A9469F760957095809552
S113089090959B01AC01BD01CF010895AA1BBB1B20
S11308A051E107C0AA1FBB1FA617B70710F0A61B6C
S11308B0B70B881F991F5A95A9F780959095BC018D
S11308C0CD0108958F929F92AF92BF92CF92DF9203
S11308D0EF92FF92CF93DF93EC01688179818A8153
S11308E09B81611571058105910521F464E279ED1F
S11308F08BE597E02DE133EF41E050E00E94BE0428
S113090049015A019B01AC01A7EAB1E40E94DD044C
S11309106B017C01ACEEB4EFA50194010E94EB04E1
S1130920DC01CB018C0D9D1DAE1DBF1DB7FF03C0A7
S11309300197A109B04888839983AA83BB839F77D1
S1130940DF91CF91FF90EF90DF90CF90BF90AF9069
S11309509F908F9008950E946204089580E091E032
S11309600E9462040895A0E0B0E080930001909397
S11309700101A0930201B09303010895052E97FB92
S11309801EF400940E94D50457FD07D00E942C0445
S113099007FC03D04EF40C94D50450954095309543
S11309A021953F4F4F4F5F4F0895909580957095D7
S11309B061957F4F8F4F9F4F08950E94F004A59F2C
S11309C0900DB49F900DA49F800D911D1124089546
S11309D0B7FF0C94DD040E94DD04821B930B089581
S11309E0A29FB001B39FC001A39F700D811D11246C
S11309F0911DB29F700D811D1124911D0895F894CD
S1050A00FFCF22
S1070A0201000000EB
S9030000FC
