:100000000C943A000C9457000C9457000C94570031
:100010000C9457000C9457000C9457000C94570004
:100020000C9457000C9457000C9457000C945700F4
:100030000C9457000C9457000C9457000C945700E4
:100040000C9457000C9457000C9457000C945700D4
:100050000C9457000C9457000C9457000C945700C4
:100060000C9457000C9457006364696E6F7073753D
:1000700078585B0011241FBECFEFD8E0DEBFCDBFA4
:1000800011E0A0E0B1E0EAECF3E102C005900D92CE
:10009000A83CB107D9F721E0A8ECB1E001C01D925E
:1000A000AC3DB207E1F70E9464020C94E3090C94A2
:1000B0000000CF93DF93CDB7DEB788EB90E020E26E
:1000C000FC0120838CEB90E02CEB30E0F9012081E7
:1000D0002460FC0120830000DF91CF910895CF932D
:1000E000DF93CDB7DEB700008CEB90E0FC018081A0
:1000F0008823D4F70000DF91CF910895CF93DF9349
:10010000CDB7DEB78CEB90E024EAFC0120830E949F
:100110006F000000DF91CF910895CF93DF93CDB7AB
:10012000DEB78CEB90E024E9FC0120830000DF9136
:10013000CF910895CF93DF93CDB7DEB78CEB90E0EE
:1001400020E9FC0120830000DF91CF910895CF9337
:10015000DF93CDB7DEB78CEB90E024ECFC0120837D
:100160000E946F008BEB90E0FC018081DF91CF91CA
:100170000895CF93DF93CDB7DEB78CEB90E024E802
:10018000FC0120830E946F008BEB90E0FC018081DA
:10019000DF91CF910895CF93DF931F92CDB7DEB754
:1001A00089838BEB90E02981FC0120838CEB90E02C
:1001B00024E8FC0120830E946F0000000F90DF9173
:1001C000CF910895CF93DF93CDB7DEB784EC90E065
:1001D00027E630E0FC013183208380EC90E0FC01D5
:1001E000108281EC90E028E1FC01208382EC90E019
:1001F00026E0FC0120830000DF91CF910895CF938A
:10020000DF9300D01F92CDB7DEB789837B836A83EB
:10021000000080EC90E0FC018081882F90E08072EB
:100220009927892BB1F386EC90E02981FC0120838A
:1002300080E090E00F900F900F90DF91CF910895A4
:10024000CF93DF9300D0CDB7DEB79A8389830000C8
:1002500080EC90E0FC0180818823D4F786EC90E06C
:10026000FC018081882F90E00F900F90DF91CF915B
:100270000895CF93DF9300D000D0CDB7DEB78B8346
:100280006C830E947E0080ED0E94CB008B810E94D7
:10029000CB009C818DEC989F812D112486958695AD
:1002A00086958295807F89839C818DEC989F812D96
:1002B0001124869586958695880F282F220F220F68
:1002C000820F292F281B822F8A8399818A81892B6B
:1002D0000E94CB000E948D0000000F900F900F90A5
:1002E0000F90DF91CF910895CF93DF9300D000D08E
:1002F0001F92CDB7DEB78D830E947E0080ED0E94F5
:10030000CB008D810E94CB000E947E0080ED816039
:100310000E94CB000E94B9008983898182958F70E9
:10032000880F982F990F990F890F8A8389818F7071
:100330008B839A818B81890F8C830E948D008C81A5
:10034000882F90E00F900F900F900F900F90DF91FB
:10035000CF910895EF92FF920F931F93CF93DF9366
:10036000CDB7DEB786E00E9474017C0185E00E9473
:1003700074018C0184E00E9474012F2D2F932E2D87
:100380002F93212F2F93202F2F93292F2F938F934C
:1003900081E091E0892F8F9381E091E08F930E941B
:1003A000A4038DB79EB708960FB6F894DEBF0FBEB4
:1003B000CDBF0000DF91CF911F910F91FF90EF9083
:1003C0000895EF92FF920F931F93CF93DF93CDB7D2
:1003D000DEB780E00E9474017C0181E00E9474011C
:1003E0008C0182E00E9474012F2D2F932E2D2F93CC
:1003F000212F2F93202F2F93292F2F938F938CE032
:1004000091E0892F8F938CE091E08F930E94A40359
:100410008DB79EB708960FB6F894DEBF0FBECDBF5E
:100420000000DF91CF911F910F91FF90EF90089501
:10043000CF93DF9300D000D000D0CDB7DEB79A8342
:1004400089837C836B835E834D838981682F84E0FD
:100450000E9439018B81682F85E00E9439018D81CE
:10046000682F86E00E943901000026960FB6F894A6
:10047000DEBF0FBECDBFDF91CF910895CF93DF9345
:1004800000D000D000D0CDB7DEB79A8389837C83BB
:100490006B835E834D838D81682F80E00E943901DC
:1004A0008B81682F81E00E9439018981682F82E069
:1004B0000E943901000026960FB6F894DEBF0FBEE9
:1004C000CDBFDF91CF910895CF93DF93CDB7DEB746
:1004D0002D970FB6F894DEBF0FBECDBF0E94E2008D
:1004E0008FEF90E09093D1018093D00180E291E072
:1004F0009093D3018093D20183E08093CB0110923B
:10050000D5011092D40188EC91E09093DB018093A7
:10051000DA018091DA019091DB019093D901809307
:10052000D8018091D8019091D9019093D7018093FF
:10053000D6010E94590019821A821B82CE010496AC
:10054000292F2F938F9387E191E0892F8F9387E154
:1005500091E08F930E94EA030F900F900F900F90FD
:10056000CE0104966AE171E00E949B03892B19F485
:100570000E94E101E3CFCE0104966FE171E00E9499
:100580009B03892B19F40E94AA01D8CFCE010496AF
:1005900064E271E00E949B03892B09F0C7C0CE0181
:1005A0000496292F2F938F9387E191E0892F8F93C2
:1005B00087E191E08F930E94EA030F900F900F90D4
:1005C0000F90CE0104966AE171E00E949B03892B93
:1005D00009F04FC0CE010396292F2F938F93CE01A0
:1005E0000296292F2F938F93CE0101969F938F937D
:1005F00088E291E0892F8F9388E291E08F930E94A7
:10060000EA038DB79EB708960FB6F894DEBF0FBE0B
:10061000CDBF8B81482F50E08A81282F30E089811F
:10062000882F90E0B9010E943E028B81482F50E054
:100630008A81282F30E08981882F90E0652F6F9381
:100640004F93432F4F932F93292F2F938F9381E312
:1006500091E0892F8F9381E391E08F930E94A4030F
:100660008DB79EB708960FB6F894DEBF0FBECDBF0C
:1006700065CFCE0104966FE171E00E949B03892B48
:1006800009F04FC0CE010396292F2F938F93CE01EF
:100690000296292F2F938F93CE0101969F938F93CC
:1006A00083E491E0892F8F9383E491E08F930E94FC
:1006B000EA038DB79EB708960FB6F894DEBF0FBE5B
:1006C000CDBF8B81482F50E08A81282F30E089816F
:1006D000882F90E0B9010E9418028B81482F50E0CA
:1006E0008A81282F30E08981882F90E0652F6F93D1
:1006F0004F93432F4F932F93292F2F938F938CE456
:1007000091E0892F8F938CE491E08F930E94A40352
:100710008DB79EB708960FB6F894DEBF0FBECDBF5B
:100720000DCF8EE591E00E94BA0308CF8EE891E0EC
:100730000E94BA0303CFFB01DC018D910190801967
:100740000110D9F3990B0895A0E0B0E0EAEAF3E0D4
:100750000C94BC09AE014B5F5F4FFA01619171913E
:10076000AF018091D8019091D9010E940004E2E08C
:100770000C94D8090F931F93CF93DF93E091D80186
:10078000F091D901238121FF1BC08C01D0E0C0E092
:10079000F80181918F016091D8017091D901DB013D
:1007A0001896ED91FC911997882331F00995892BC2
:1007B00079F3DFEFCFEFECCF8AE00995892B19F0C1
:1007C0008FEF9FEF02C08D2F9C2FDF91CF911F9154
:1007D0000F910895A0E0B0E0E0EFF3E00C94BC09C5
:1007E000AE014B5F5F4FFA0161917191AF01809152
:1007F000D6019091D7010E947D07E2E00C94D809C0
:10080000ABE0B0E0E6E0F4E00C94AC096C017B01F5
:100810008A01FC0117821682838181FFCCC1CE013F
:1008200001963C01F6019381F70193FD859193FFB9
:1008300081917F01882309F4BAC1853239F493FD8F
:10084000859193FF81917F01853229F4B60190E073
:100850000E94F608E7CF912C212C312CFFE1F315F3
:10086000D8F08B3279F038F4803279F08332A1F409
:10087000232D20611DC08D3261F0803369F4232D5A
:10088000216016C0832D8260382EE32DE4603E2E59
:100890002AC0F32DF8601DC037FC2DC020ED280FB5
:1008A0002A3040F08E32B9F436FC81C1232D206409
:1008B000322E19C036FE06C08AE0989E200D112403
:1008C000922E11C0EAE02E9E200D1124222EF32D2F
:1008D000F0623F2E08C08C3621F4832D8068382EBC
:1008E00002C0883641F4F70193FD859193FF819111
:1008F0007F018111B3CF982F9F7D9554933028F4B9
:100900000C5F1F4F9FE399830DC0833631F083370F
:1009100071F0833509F059C021C0F80180818983C5
:100920000E5F1F4F88248394912C530113C028011C
:10093000F2E04F0E511CF801A080B18036FE03C0DA
:10094000692D70E002C06FEF7FEFC5010E94AD0816
:100950004C018201F32DFF773F2E16C0280122E0C3
:10096000420E511CF801A080B18036FE03C0692DF3
:1009700070E002C06FEF7FEFC5010E94A2084C013A
:10098000F32DF0683F2E820133FC1BC0822D90E0D6
:1009900088169906B0F4B60180E290E00E94F6084D
:1009A0002A94F4CFF50137FC859137FE81915F01E0
:1009B000B60190E00E94F60821102A9421E0821AE4
:1009C00091088114910471F7E8C0843611F08936DA
:1009D00041F5F80137FE07C0608171818281938102
:1009E0000C5F1F4F08C060817181072E000C880BBF
:1009F000990B0E5F1F4FF32DFF763F2E97FF09C017
:100A000090958095709561957F4F8F4F9F4FF068BF
:100A10003F2E2AE030E0A3010E944B09882E861861
:100A200045C0853731F4232D2F7EB22E2AE030E0E9
:100A300025C0932D997FB92E8F36C1F018F48835D3
:100A400079F0B5C0803719F0883721F0B0C0E92FB0
:100A5000E061BE2EB4FE0DC0FB2DF460BF2E09C0B8
:100A600034FE0AC0292F2660B22E06C028E030E0EE
:100A700005C020E130E002C020E132E0F801B7FE1D
:100A800007C060817181828193810C5F1F4F06C016
:100A90006081718180E090E00E5F1F4FA3010E9492
:100AA0004B09882E8618FB2DFF773F2E36FE0DC092
:100AB000232D2E7FA22E891458F434FE0BC032FC55
:100AC00009C0832D8E7EA82E05C0B82CA32C03C090
:100AD000B82C01C0B92CA4FE0FC0FE01E80DF11D19
:100AE0008081803321F49A2D997EA92E09C0A2FE1F
:100AF00006C0B394B39404C08A2D867809F0B394E9
:100B0000A3FC11C0A0FE06C0B21488F4280C922CDD
:100B10009B180EC0B21460F4B60180E290E00E940F
:100B2000F608B394F7CFB21418F42B1802C0982C1F
:100B3000212CA4FE10C0B60180E390E00E94F608CC
:100B4000A2FE17C0A1FC03C088E790E002C088E5C0
:100B500090E0B6010CC08A2D867859F0A1FE02C043
:100B60008BE201C080E2A7FC8DE2B60190E00E941A
:100B7000F608891438F4B60180E390E00E94F60884
:100B80009A94F7CF8A94F301E80DF11D8081B601A4
:100B900090E00E94F6088110F5CF222009F442CEA1
:100BA000B60180E290E00E94F6082A94F6CFF601A2
:100BB0008681978102C08FEF9FEF2B96E2E10C9424
:100BC000C80920FD09C0FC0123FD05C022FF02C0A9
:100BD0007383628351834083089544FD17C046FDAB
:100BE00017C0AB01BC01DA01FB01AA0FBB1FEE1F4E
:100BF000FF1F1094D1F74A0F5B1F6E1F7F1FCB01A1
:100C0000BA01660F771F881F991F09C033E001C022
:100C100034E0660F771F881F991F3150D1F7620F9C
:100C2000711D811D911D08950F931F93CF93DF9325
:100C30008C01C8010E94B808EC0197FD08C00E9411
:100C40008E08892BB1F7B801CE010E943209CE017E
:100C5000DF91CF911F910F9108958F929F92AF9244
:100C6000BF92EF92FF920F931F93CF93DF938C016C
:100C7000D62F7A01B22E0E94B8089C0133272B325E
:100C8000310531F02D32310561F48B2D8068B82E9D
:100C9000D15011F480E068C0C8010E94B80897FDE7
:100CA000F9CFCB2DCD7F2B2D207309F58033F9F4AF
:100CB000AA24AA94AD0E09F443C0C8010E94B80842
:100CC00097FD3EC09C012F7D33272835310549F41F
:100CD000C264D250A9F1C8010E94B80897FF07C0AA
:100CE0002FC0B6FE02C0C26001C0C261DA2D812CE5
:100CF000912C540120ED280F283080F0C4FF04C04F
:100D0000B8010E94320919C02A3040F0C6FFF8CF5E
:100D10002F7D3FEE320F363098F727504C2FC5010C
:100D2000B4010E94ED054B015C01C260D15059F045
:100D3000C8010E94B80897FFDDCFC1FD04C0AACF4B
:100D4000812C912C5401C7FF08C0B094A0949094BA
:100D50008094811C911CA11CB11C2C2FB501A401F5
:100D6000C7010E94E10581E0DF91CF911F910F91B2
:100D7000FF90EF90BF90AF909F908F900895A0E26A
:100D8000B0E0E5ECF6E00C94AF095C01962E7A0138
:100D9000F9018E010F5F1F4F680180E2D8011D929B
:100DA0008A95E9F7D50113968C9080E090E0612C4C
:100DB000712C30E061E070E083FC259183FE21918D
:100DC0008F01522E211103C080E090E092C02E3599
:100DD00011F4009751F1432F50E0481759073CF4A4
:100DE0002D3559F12D3219F4772009F103C0772000
:100DF00009F46AC0452D469546954695D601A40F3F
:100E0000B11D452D47708B0102C0000F111F4A957F
:100E1000E2F7A8015C91452B4C93651459F05614E8
:100E200010F45394E7CF5A94E5CF31E004C077240F
:100E3000739401C0712C0196BFCF772019F08E8179
:100E400080628E83311103C08824839417C0F60119
:100E50009E012F5D3F4F8081809581932E173F0724
:100E6000D1F7F2CFE114F10429F0D7018C93F70107
:100E700031967F019A94812C9920F9F0C5010E9446
:100E8000B80897FD18C0FC01FF2723E0F595E7950A
:100E90002A95E1F7EC0DFD1D208130E0AC01477093
:100EA000552702C0359527954A95E2F720FDDACF00
:100EB000B5010E943209811087CFE114F10411F0CD
:100EC000D7011C92C80115C0422F469546954695FC
:100ED000D601A40FB11D422F47708B0102C0000F35
:100EE000111F4A95E2F7A8015C91452B4C93622EA5
:100EF000A2CFA096EFE00C94CB09A0E0B0E0E3E82D
:100F0000F7E00C94AF096C01EB015A01FC01178268
:100F10001682512CF601E380FE01E3FC8591E3FE8D
:100F20008191182FEF01882309F4EEC090E00E9410
:100F30008E08892B21F0C6010E941406EBCF1532D2
:100F400041F4FE01E3FC1591E3FE1191EF0115322E
:100F500081F4C6010E94B80897FDD4C0412F50E02B
:100F60009C01332724173507A9F2B6010E943209E4
:100F7000CBC01A3239F4E3FC1591E3FE1191EF0175
:100F800001E001C000E0F12C20ED210F2A3080F4B7
:100F900002606F2D70E080E090E040E20E94ED057D
:100FA000F62EFE01E3FC1591E3FE1191EF01ECCF6B
:100FB00001FF03C0F11003C0A7C0FF24FA94183644
:100FC00019F01C3651F010C0FE01E3FC1591E3FE50
:100FD0001191EF01183641F408600460FE01E3FC52
:100FE0001591E3FE1191EF01112309F48DC0612FDA
:100FF00070E088E690E00E949708892B09F484C08D
:1010000000FD07C0F50180809180C50102965C015A
:1010100002C0812C912C1E3651F4F6014681578175
:1010200060E070E0202FC4010E94E10573CF133609
:10103000A9F401FD02C0FF24F394C6010E94B80880
:1010400097FD60C08114910429F0F4018083C401EC
:1010500001964C01FA94F110F0CF50C01B3559F4B1
:101060009E01A4016F2DC6010E94BF06EC01892BD1
:1010700009F044C03EC0C6010E94140697FD42C05C
:101080001F3661F128F4143639F1193651F128C0B0
:10109000133771F0153701F123C08114910429F041
:1010A000F4016082C40101964C01FA94FF2071F0B2
:1010B000C6010E94B8083C0197FD08C00E948E0836
:1010C000892B59F3B601C3010E943209811491049E
:1010D000A9F0F401108212C0006203C0006101C0D7
:1010E0000064202FA4016F2DC6010E942D068111DE
:1010F00005C0F6018381807329F406C000FD0ACF84
:10110000539408CF552019F0852D90E002C08FEF41
:101110009FEFCDB7DEB7EFE00C94CB0991110C94A3
:10112000A909803219F089508550C8F70895FC014B
:101130000590061621F00020D9F7C00108953197D7
:10114000CF010895FC010590615070400110D8F75F
:10115000809590958E0F9F1F0895FC0161507040FF
:1011600001900110D8F7809590958E0F9F1F0895DC
:10117000CF93DF93EC012B8120FF33C026FF0AC001
:101180002F7B2B838E819F8101969F838E838A8103
:1011900090E029C022FF0FC0E881F9818081082EEC
:1011A000000C990B009719F420622B831AC031961A
:1011B000F983E8830EC0EA85FB85099597FF09C08E
:1011C0002B81019611F080E201C080E1822B8B839C
:1011D00008C02E813F812F5F3F4F3F832E83992789
:1011E00002C08FEF9FEFDF91CF9108950F931F9370
:1011F000CF93DF93FB01238121FD03C08FEF9FEF8E
:101200002CC022FF16C046815781248135814217A8
:10121000530744F4A081B1819D012F5F3F4F31837B
:1012200020838C93268137812F5F3F4F378326831E
:1012300014C08B01EC01FB010084F185E02D0995C0
:10124000892BE1F6D80116968D919C9117970196FE
:1012500017969C938E931697CE01DF91CF911F9195
:101260000F910895FB01238120FF12C026FD10C0BD
:101270008F3F3FEF930761F082832F7D20642383AC
:101280002681378121503109378326839927089594
:101290008FEF9FEF0895FA01AA27283051F12031EE
:1012A00081F1E8946F936E7F6E5F7F4F8F4F9F4FFA
:1012B000AF4FB1E03ED0B4E03CD0670F781F891F3C
:1012C0009A1FA11D680F791F8A1F911DA11D6A0F0A
:1012D000711D811D911DA11D20D009F468943F91BD
:1012E0002AE0269F11243019305D3193DEF6CF01BC
:1012F0000895462F4770405D4193B3E00FD0C9F782
:10130000F6CF462F4F70405D4A3318F0495D31FDEE
:101310004052419302D0A9F7EACFB4E0A695979541
:10132000879577956795BA95C9F700976105710517
:1013300008959B01AC010A2E069457954795379561
:101340002795BA95C9F7620F731F841F951FA01DBB
:1013500008959927882708952F923F924F925F9280
:101360006F927F928F929F92AF92BF92CF92DF92B5
:10137000EF92FF920F931F93CF93DF93CDB7DEB71A
:10138000CA1BDB0B0FB6F894DEBF0FBECDBF0994AE
:101390002A88398848885F846E847D848C849B8405
:1013A000AA84B984C884DF80EE80FD800C811B8113
:1013B000AA81B981CE0FD11D0FB6F894DEBF0FBE42
:0A13C000CDBFED010895F894FFCFB2
:1013CA00D025642D25642D25640D0A0025643A254F
:1013DA00643A25640D0A0025730074696D6500641A
:1013EA00617465007365740025643A25643A25645E
:1013FA000057726974653A2025643A25643A25646F
:10140A000D0A0025642D25642D2564005772697420
:10141A00653A2025642D25642D25640D0A00496E40
:10142A0076616C696420636F6D6D616E642E205500
:10143A007365207365742074696D652F73657420F4
:10144A006461746520696E73746561640D00496E28
:10145A0076616C696420636F6D6D616E642E2055D0
:10146A0073652074696D652F646174652F73657483
:10147A002074696D652F73657420646174652069D1
:08148A006E73746561640D00CE
:00000001FF
