:100000000C9434000C9451000C9451000C94510049
:100010000C9451000C9451000C9451000C9451001C
:100020000C9451000C9451000C9451000C9451000C
:100030000C9451000C9451000C9451000C945100FC
:100040000C9451000C9451000C9451000C945100EC
:100050000C9451000C9451000C9451000C945100DC
:100060000C9451000C94510011241FBECFEFD8E026
:10007000DEBFCDBF12E0A0E0B1E0E0EBFAE002C0ED
:1000800005900D92A034B107D9F722E0A0E4B2E0C8
:1000900001C01D92A435B207E1F70E94AF000C9495
:1000A00056050C9400009091C00095FFFCCF809302
:1000B000C60080E090E008958091C00087FFFCCFEB
:1000C0008091C60090E0089580E28093B800ECEB48
:1000D000F0E080818460808308958091BC0087FF78
:1000E000FCCF089584EA8093BC008091BC0087FF18
:1000F000FCCF089584E98093BC00089580E9809343
:10010000BC00089584EC8093BC008091BC0087FF04
:10011000FCCF8091BB00089584E88093BC0080915F
:10012000BC0087FFFCCF8091BB0008958093BB008B
:1001300084E88093BC008091BC0087FFFCCF0895C9
:1001400087E690E09093C5008093C4001092C000B1
:1001500088E18093C10086E08093C2000895CF9328
:10016000DF9300D01F92CDB7DEB787E690E0909383
:10017000C5008093C4001092C00088E18093C10044
:1001800086E08093C20080E492E023E530E0309383
:100190004902209348022CE530E030934B02209333
:1001A0004A0223E02093430210924D0210924C0227
:1001B0009093530280935202909351028093500285
:1001C00090934F0280934E0280E28093B80080911A
:1001D000BC0084608093BC00712C1B821A8294EA5C
:1001E000692E21E0822E21E0922E00E914E832E20D
:1001F000A32E31E0B32E42E5242E41E0342E54E903
:10020000452E60E8C62E61E0D62E6092BC0080913B
:10021000BC0087FFFCCF8091B900887F883079F0DF
:100220008091B900887F1F928F939F928F920E9436
:1002300078020093BC000F900F900F900F90EA800F
:10024000FB80EE2421E0F222EE0CEF2CEE1CFF08E6
:10025000F1948E2D806A89838093BB001093BC003B
:100260008091BC0087FFFCCF8091B900887F8831E6
:1002700079F08091B900887F1F928F93BF92AF92DF
:100280000E9478020093BC000F900F900F900F9087
:100290005A805092BB001093BC008091BC0087FF35
:1002A000FCCF8091B900887F883279F08091B900C5
:1002B000887F1F928F933F922F920E947802009323
:1002C000BC000F900F900F900F907092BB00109396
:1002D000BC008091BC0087FFFCCF4092BC008091A5
:1002E000B900887F883F79F08091B900887F1F929C
:1002F0008F93DF92CF920E9478020093BC000F9000
:100300000F900F900F901F927F929B819F932A8155
:100310002F9380EA91E09F938F930E9478026092DE
:10032000BC000F900F900F900F900F900F90809146
:10033000BC0087FFFCCF8091B900887F883079F0BE
:100340008091B900887F1F928F939F928F920E9415
:1003500078020093BC000F900F900F900F9089814E
:100360008093BB001093BC008091BC0087FFFCCF42
:100370008091B900887F883179F08091B900887FB9
:100380001F928F93BF92AF920E9478020093BC009D
:100390000F900F900F900F905092BB001093BC00E5
:1003A0008091BC0087FFFCCF8091B900887F8832A4
:1003B00079F08091B900887F1F928F933F922F929E
:1003C0000E9478020093BC000F900F900F900F9046
:1003D0006092BC008091BC0087FFFCCF8091B90087
:1003E000887F803189F08091B900887F1F928F9338
:1003F00081EB91E09F938F930E9478020093BC0061
:100400000F900F900F900F908E2D816A8093BB00FC
:100410001093BC008091BC0087FFFCCF8091B90095
:10042000887F803489F08091B900887F1F928F93F4
:1004300089ED91E09F938F930E9478020093BC0016
:100440000F900F900F900F901093BC008091BC0004
:1004500087FFFCCFF090BB008091B900887F883582
:1004600089F08091B900887F1F928F9388E092E095
:100470009F938F930E9478020093BC000F900F907F
:100480000F900F904092BC008091B900887F883F08
:1004900079F08091B900887F1F928F93DF92CF927D
:1004A0000E9478020093BC000F900F900F900F9065
:1004B0001F92FF928B818F939A819F938FE292E09C
:1004C0009F938F930E9478028A819B8101969170FD
:1004D0009B838A8373948FE39CE90197F1F700C0B3
:1004E00000000F900F900F900F900F900F908DCEF7
:1004F000A0E0B0E0EEE7F2E00C942F05AE014B5F18
:100500005F4FFA0161917191AF018091500290911A
:1005100051020E948E02E2E00C944B05ABE0B0E089
:10052000E4E9F2E00C941F056C017B018A01FC01F7
:1005300017821682838181FFCCC1CE0101963C01D6
:10054000F6019381F70193FD859193FF81917F01DE
:10055000882309F4BAC1853239F493FD859193FF5C
:1005600081917F01853229F4B60190E00E948504D3
:10057000E7CF912C212C312CFFE1F315D8F08B32F1
:1005800079F038F4803279F08332A1F4232D2061A0
:100590001DC08D3261F0803369F4232D216016C0B7
:1005A000832D8260382EE32DE4603E2E2AC0F32D89
:1005B000F8601DC037FC2DC020ED280F2A3040F018
:1005C0008E32B9F436FC81C1232D2064322E19C03D
:1005D00036FE06C08AE0989E200D1124922E11C08E
:1005E000EAE02E9E200D1124222EF32DF0623F2EE4
:1005F00008C08C3621F4832D8068382E02C08836DE
:1006000041F4F70193FD859193FF81917F01811161
:10061000B3CF982F9F7D9554933028F40C5F1F4FD4
:100620009FE399830DC0833631F0833771F08335B2
:1006300009F059C021C0F801808189830E5F1F4FE6
:1006400088248394912C530113C02801F2E04F0EAB
:10065000511CF801A080B18036FE03C0692D70E006
:1006600002C06FEF7FEFC5010E947A044C01820146
:10067000F32DFF773F2E16C0280122E0420E511CB9
:10068000F801A080B18036FE03C0692D70E002C081
:100690006FEF7FEFC5010E946F044C01F32DF068EE
:1006A0003F2E820133FC1BC0822D90E088169906F4
:1006B000B0F4B60180E290E00E9485042A94F4CF61
:1006C000F50137FC859137FE81915F01B60190E01D
:1006D0000E94850421102A9421E0821A9108811435
:1006E000910471F7E8C0843611F0893641F5F801BC
:1006F00037FE07C060817181828193810C5F1F4F3B
:1007000008C060817181072E000C880B990B0E5F69
:100710001F4FF32DFF763F2E97FF09C090958095D0
:10072000709561957F4F8F4F9F4FF0683F2E2AE065
:1007300030E0A3010E94C104882E861845C0853789
:1007400031F4232D2F7EB22E2AE030E025C0932DE8
:10075000997FB92E8F36C1F018F4883579F0B5C07D
:10076000803719F0883721F0B0C0E92FE061BE2E44
:10077000B4FE0DC0FB2DF460BF2E09C034FE0AC0CC
:10078000292F2660B22E06C028E030E005C020E107
:1007900030E002C020E132E0F801B7FE07C060811E
:1007A0007181828193810C5F1F4F06C060817181CE
:1007B00080E090E00E5F1F4FA3010E94C104882ECD
:1007C0008618FB2DFF773F2E36FE0DC0232D2E7F82
:1007D000A22E891458F434FE0BC032FC09C0832DBC
:1007E0008E7EA82E05C0B82CA32C03C0B82C01C047
:1007F000B92CA4FE0FC0FE01E80DF11D80818033ED
:1008000021F49A2D997EA92E09C0A2FE06C0B394A8
:10081000B39404C08A2D867809F0B394A3FC11C068
:10082000A0FE06C0B21488F4280C922C9B180EC0AF
:10083000B21460F4B60180E290E00E948504B394A3
:10084000F7CFB21418F42B1802C0982C212CA4FE58
:1008500010C0B60180E390E00E948504A2FE17C09C
:10086000A1FC03C088E790E002C088E590E0B601F3
:100870000CC08A2D867859F0A1FE02C08BE201C01F
:1008800080E2A7FC8DE2B60190E00E948504891405
:1008900038F4B60180E390E00E9485049A94F7CF83
:1008A0008A94F301E80DF11D8081B60190E00E9469
:1008B00085048110F5CF222009F442CEB60180E2F2
:1008C00090E00E9485042A94F6CFF60186819781F4
:1008D00002C08FEF9FEF2B96E2E10C943B05FC01E9
:1008E0000590615070400110D8F7809590958E0F5B
:1008F0009F1F0895FC016150704001900110D8F7CE
:10090000809590958E0F9F1F08950F931F93CF93FF
:10091000DF93FB01238121FD03C08FEF9FEF2CC0EC
:1009200022FF16C046815781248135814217530723
:1009300044F4A081B1819D012F5F3F4F318320831B
:100940008C93268137812F5F3F4F3783268314C0D6
:100950008B01EC01FB010084F185E02D0995892BC9
:10096000E1F6D80116968D919C91179701961796EE
:100970009C938E931697CE01DF91CF911F910F918B
:100980000895FA01AA27283051F1203181F1E89425
:100990006F936E7F6E5F7F4F8F4F9F4FAF4FB1E072
:1009A0003ED0B4E03CD0670F781F891F9A1FA11D6D
:1009B000680F791F8A1F911DA11D6A0F711D811D6E
:1009C000911DA11D20D009F468943F912AE0269F33
:1009D00011243019305D3193DEF6CF010895462F92
:1009E0004770405D4193B3E00FD0C9F7F6CF462F73
:1009F0004F70405D4A3318F0495D31FD40524193DC
:100A000002D0A9F7EACFB4E0A69597958795779598
:100A10006795BA95C9F700976105710508959B011F
:100A2000AC010A2E06945795479537952795BA95A8
:100A3000C9F7620F731F841F951FA01D08952F9281
:100A40003F924F925F926F927F928F929F92AF925E
:100A5000BF92CF92DF92EF92FF920F931F93CF93AB
:100A6000DF93CDB7DEB7CA1BDB0B0FB6F894DEBF42
:100A70000FBECDBF09942A88398848885F846E8468
:100A80007D848C849B84AA84B984C884DF80EE80B2
:100A9000FD800C811B81AA81B981CE0FD11D0FB6BB
:100AA000F894DEBF0FBECDBFED010895F894FFCFDF
:100AB000A0493243207374617274206661696C6569
:100AC000642C207374617475733A20252E32780D6E
:100AD0000A0049324320454550524F4D20777269F4
:100AE00074652072657175657374206661696C65E3
:100AF000642C207374617475733A20252E32780D3E
:100B00000A0049324320454550524F4D20736574C9
:100B10002061646472657373206661696C65642C1E
:100B2000207374617475733A20252E32780D0A0093
:100B30004932432073746F70206661696C65642C60
:100B4000207374617475733A20252E32780D0A0073
:100B500077726974653A252E33783A2025780D0A24
:100B600000493243207365636F6E64207374617251
:100B700074206661696C65642C207374617475738C
:100B80003A20252E32780D0A00493243204545503F
:100B9000524F4D2072656164207265717565737482
:100BA000206661696C65642C207374617475733A96
:100BB00020252E32780D0A004932432045455052F7
:100BC0004F4D2072656164206661696C65642C20FC
:100BD0007374617475733A20252E32780D0A007291
:100BE0006561643A252E33783A2025780D0A000095
:00000001FF
