S00C00006D61696E2E7372656373
S11300000C9434000C943E000C943E000C943E007E
S11300100C943E000C943E000C943E000C943E0064
S11300200C943E000C943E000C943E000C943E0054
S11300300C943E000C943E000C943E000C943E0044
S11300400C943E000C943E000C943E000C943E0034
S11300500C943E000C943E000C943E000C943E0024
S11300600C943E000C943E0011241FBECFEFD8E048
S1130070DEBFCDBF0E945A000C9412010C94000004
S11300804BB121E030E0B90102C0660F771F8A95B9
S1130090E2F7CB01462B4BB97FEF21EE34E07150F0
S11300A020403040E1F700C000009BB180958923D7
S11300B08BB908958091C100877E8093C1008FEF32
S11300C08AB9589A2FEF81EE94E0215080409040F5
S11300D0E1F700C000005898599A2FEF81EE94E0A0
S11300E0215080409040E1F700C0000059985A9A8E
S11300F02FEF81EE94E0215080409040E1F700C062
S113010000005A985B9A2FEF81EE94E021508040D2
S11301109040E1F700C000005B985C9A2FEF81EEFD
S113012094E0215080409040E1F700C000005C98CA
S11301305D9A2FEF81EE94E0215080409040E1F7EA
S113014000C000005D985E9A2FEF81EE94E021508C
S113015080409040E1F700C000005E985F9A2FEF66
S113016081EE94E0215080409040E1F700C000000F
S11301705F985F9A2FEF81EE94E021508040904089
S1130180E1F700C000005F985E9A2FEF81EE94E0E3
S1130190215080409040E1F700C000005E985D9AD5
S11301A02FEF81EE94E0215080409040E1F700C0B1
S11301B000005D985C9A2FEF81EE94E0215080401E
S11301C09040E1F700C000005C985B9A2FEF81EE4D
S11301D094E0215080409040E1F700C000005B981B
S11301E05A9A2FEF81EE94E0215080409040E1F73D
S11301F000C000005A98599A2FEF81EE94E02150E4
S113020080409040E1F700C000005998589A2FEFC1
S113021081EE94E0215080409040E1F700C000005E
S10B022058984FCFF894FFCF6A
S9030000FC
