S00C00006D61696E2E7372656373
S11300000C943A000C9457000C9457000C9457002D
S11300100C9457000C9457000C9457000C94570000
S11300200C9457000C9457000C9457000C945700F0
S11300300C9457000C9457000C9457000C945700E0
S11300400C9457000C9457000C9457000C945700D0
S11300500C9457000C9457000C9457000C945700C0
S11300600C9457000C9457006364696E6F70737539
S113007078585B0011241FBECFEFD8E0DEBFCDBFA0
S113008012E0A0E0B1E0E2E5F5E102C005900D92D6
S1130090AC3BB107D9F722E0ACEBB2E001C01D9252
S11300A0A03DB207E1F70E94CB000C94A70A0C9480
S11300B000009091C00095FFFCCF8093C60080E0C3
S11300C090E008958091C00087FFFCCF8091C60026
S11300D090E0089580E28093B800ECEBF0E080813A
S11300E08460808308958091BC0087FFFCCF0895CD
S11300F084EA8093BC008091BC0087FFFCCF089504
S113010084E98093BC00089580E98093BC0008953D
S113011084EC8093BC008091BC0087FFFCCF80916D
S1130120BB00089584E88093BC008091BC0087FFE5
S1130130FCCF8091BB0008958093BB0084E880933A
S1130140BC008091BC0087FFFCCF089587E690E057
S11301509093C5008093C4001092C00088E18093FE
S1130160C10086E08093C200089590ED980F9A3004
S113017050F09FE9980F963058F4082E000C990B14
S1130180875591090895082E000C990BC09708957E
S11301908FEF9FEF0895CF93DF93CDB7DEB7CF5A9C
S11301A0D1400FB6F894DEBF0FBECDBF87E690E016
S11301B09093C5008093C4001092C00088E180939E
S11301C0C10086E08093C2008CEB92E029E530E028
S11301D03093C5022093C40222E630E03093C70274
S11301E02093C60223E02093BF021092C90210920A
S11301F0C8029093CF028093CE029093CD02809355
S1130200CC029093CB028093CA0280E28093B80020
S11302108091BC0084608093BC001E0125E5221AF5
S11302202EEF320AF10111821082CE018F559E4FBA
S11302306C013296C255DE4FF983E883CE5AD14021
S113024011E0612E11E0712E04E8502E08E112E055
S1130250DF92CF927F926F920E94AE0464E071E0CD
S1130260C6010E945F040F900F900F900F90892B8E
S113027009F463C165E672E0C6010E945F04892B3C
S113028009F056C181E090E08C0F9D1F9F938F93DE
S11302907F926F920E94AE048A8190ED980F0F9026
S11302A00F900F900F909A3008F0A7C28295807F2C
S11302B09B8120ED290F2A3008F0ADC2922FB82E71
S11302C0B90EC355DE4FB882CD5AD1408C8190ED22
S11302D0980F9A3008F0C3C2082E000C990BAC0199
S11302E0542F44275295507F8D8190ED980F9A306A
S11302F008F0C9C2082E000C990BC097982F8827C4
S1130300840F951F3E8120ED230F2A3008F095C2FB
S1130310E32E330FFF08E0E3EE1AF108970122956C
S11303203295307F3227207F3227820F931F3F81FF
S113033020ED230F2A3008F075C2E32E330FFF0897
S11303409701205331097901E80EF91EF101F18278
S1130350E0821B14CCF5FE013A96DE01AF56BE4F87
S11303609D012B0D311DB7FC3A950FC0982F929526
S1130370907F818140ED480F4A30D0F4842F890F5B
S11303808D933296A217B307F9F0808190ED980F00
S11303909A3060F39FE9980F963008F0C5C08295B3
S11303A0807F90E9980F818140ED480F4A3030F307
S11303B04FE9480F463008F0B9C08755890F8D932F
S11303C03296A217B30709F784EA8093BC008091A0
S11303D0BC0087FFFCCF8091B900887F883091F002
S11303E08091B900887F1F928F9386E391E09F9359
S11303F08F930E94680480E98093BC000F900F9053
S11304000F900F90C70188279170880F892F881F3C
S1130410990B9195806A8093BB005092BC008091A7
S1130420BC0087FFFCCF8091B900887F883191F0B0
S11304308091B900887F1F928F9387E591E09F9305
S11304408F930E94680480E98093BC000F900F9002
S11304500F900F90E092BB005092BC008091BC00C2
S113046087FFFCCF8091B900887F883291F080911A
S1130470B900887F1F928F9387E891E09F938F93B1
S11304800E94680480E98093BC000F900F900F9045
S11304900F90BB2091F0FE01EF56FE4F9F012B0DF4
S11304A0311D81918093BB005092BC008091BC00AF
S11304B087FFFCCF2E173F07A1F784E98093BC0088
S11304C08091B900887F883F91F08091B900887F3E
S11304D01F928F9385E492E09F938F930E94680408
S11304E080E98093BC000F900F900F900F90F10162
S11304F081818F9380818F93C355DE4F8881CD5A3C
S1130500D140282F082E000C330B3F938F938BE69A
S113051092E09F938F930E9468040F900F900F9026
S11305200F900F900F9094CE90EF23CF8FEF27CFA3
S113053083E992E00E947E048BCE3F922F9289E061
S113054091E09F938F930E94AE04C155DE4FF881D2
S1130550CF5AD140FF93C255DE4F2881CE5AD140A5
S11305602F938CE091E09F938F930E94AE04F1014E
S113057081818F9380818F93C355DE4F8881CD5ABB
S1130580D140282F082E000C330B3F938F938FE01C
S113059091E09F938F930E946804C355DE4F488077
S11305A0CD5AD140E42C042C000CFF08F101A080AA
S11305B0B18084EA8093BC000FB6F894DEBF0FBE0E
S11305C0CDBF8091BC0087FFFCCF8091B900887FAC
S11305D0883091F08091B900887F1F928F9386E3D1
S11305E091E09F938F930E94680480E98093BC00FC
S11305F00F900F900F900F904501882491E099225D
S1130600880C892C881C99089194882D806A809381
S1130610BB005092BC008091BC0087FFFCCF80914E
S1130620B900887F883191F08091B900887F1F924A
S11306308F93E7E5F1E0FF93EF930E94680480E96C
S11306408093BC000F900F900F900F90A092BB006E
S11306505092BC008091BC0087FFFCCF8091B90010
S1130660887F883291F08091B900887F1F928F93A0
S113067087E891E09F938F930E94680480E98093B8
S1130680BC000F900F900F900F9084EA8093BC00F1
S11306908091BC0087FFFCCF8091B900887F8031B6
S11306A091F08091B900887F1F928F9385EB91E040
S11306B09F938F930E94680480E98093BC000F90FD
S11306C00F900F900F90882D816A8093BB005092F9
S11306D0BC008091BC0087FFFCCF8091B900887F6B
S11306E0803491F08091B900887F1F928F938DEDB3
S11306F091E09F938F930E94680480E98093BC00EB
S11307000F900F900F900F90BF92AF92FF924F9265
S11307108CE092E09F938F930E946804F1E0EF1ABB
S1130720F1080F900F900F900F900F900F901E14E0
S11307301F04E4F4A12CB12CA4EC9A2E9092BC00DA
S11307408091BC0087FFFCCF8091BB001F928F93E8
S11307501F930F930E9468042FEFA21AB20A0F90FE
S11307600F900F900F90AE14BF0444F35092BC004E
S11307708091BC0087FFFCCF8091BB001F928F93B8
S11307808EE392E09F938F930E9468048091B90056
S1130790887F0F900F900F900F90883591F0809183
S11307A0B900887F1F928F938EE192E09F938F937D
S11307B00E94680480E98093BC000F900F900F9012
S11307C00F9084E98093BC008091B900887F883FB2
S11307D009F43ECD8091B900887F1F928F9385E400
S11307E092E09F938F930E94680480E98093BC00F9
S11307F00F900F900F900F902BCD9FE9980F96308C
S113080008F04DC08295807F80579B8120ED290F91
S11308102A3008F453CD2FE9290F263008F041C0BF
S113082097554DCD2FE9230F2630E8F5E32E330FEE
S1130830FF0897012755310986CD2FE9230F26306C
S1130840C0F5E32E330FFF08F7E5EF1AF10897011F
S113085022953295307F3227207F322766CD9FE95B
S1130860980F963018F5082E000C990B87559109AE
S1130870AC01542F44275295507F8D8190ED980FF1
S11308809A3008F437CD9FE9980F9630A8F4282FB2
S1130890880F330B27553109922F882731CD80EFEC
S11308A007CD9FEF0CCD2FEF3FEF4DCD40E050EF44
S11308B01BCD20EF3FEF39CD80E09FEF21CDFB0131
S11308C0DC018D91019080190110D9F3990B0895E1
S11308D0A0E0B0E0EEE6F4E00C94800AAE014B5FD9
S11308E05F4FFA0161917191AF018091CC029091B7
S11308F0CD020E94C404E2E00C949C0A0F931F935F
S1130900CF93DF93E091CC02F091CD02238121FFBC
S11309101BC08C01D0E0C0E0F80181918F0160918F
S1130920CC027091CD02DB011896ED91FC911997E0
S1130930882331F00995892B79F3DFEFCFEFECCFE2
S11309408AE00995892B19F08FEF9FEF02C08D2F54
S11309509C2FDF91CF911F910F910895A0E0B0E0FB
S1130960E4EBF4E00C94800AAE014B5F5F4FFA01B4
S113097061917191AF018091CA029091CB020E9462
S11309804108E2E00C949C0AABE0B0E0EAECF4E04D
S11309900C94700A6C017B018A01FC011782168297
S11309A0838181FFCCC1CE0101963C01F601938184
S11309B0F70193FD859193FF81917F01882309F4C9
S11309C0BAC1853239F493FD859193FF81917F01FA
S11309D0853229F4B60190E00E94BA09E7CF912C40
S11309E0212C312CFFE1F315D8F08B3279F038F457
S11309F0803279F08332A1F4232D20611DC08D3221
S1130A0061F0803369F4232D216016C0832D826048
S1130A10382EE32DE4603E2E2AC0F32DF8601DC06D
S1130A2037FC2DC020ED280F2A3040F08E32B9F467
S1130A3036FC81C1232D2064322E19C036FE06C037
S1130A408AE0989E200D1124922E11C0EAE02E9E79
S1130A50200D1124222EF32DF0623F2E08C08C3677
S1130A6021F4832D8068382E02C0883641F4F701C2
S1130A7093FD859193FF81917F018111B3CF982FCD
S1130A809F7D9554933028F40C5F1F4F9FE3998307
S1130A900DC0833631F0833771F0833509F059C0C6
S1130AA021C0F801808189830E5F1F4F88248394BD
S1130AB0912C530113C02801F2E04F0E511CF80190
S1130AC0A080B18036FE03C0692D70E002C06FEFD4
S1130AD07FEFC5010E9471094C018201F32DFF775C
S1130AE03F2E16C0280122E0420E511CF801A080BE
S1130AF0B18036FE03C0692D70E002C06FEF7FEF56
S1130B00C5010E9466094C01F32DF0683F2E820155
S1130B1033FC1BC0822D90E088169906B0F4B60110
S1130B2080E290E00E94BA092A94F4CFF50137FCE0
S1130B30859137FE81915F01B60190E00E94BA0968
S1130B4021102A9421E0821A91088114910471F7EA
S1130B50E8C0843611F0893641F5F80137FE07C044
S1130B6060817181828193810C5F1F4F08C0608115
S1130B707181072E000C880B990B0E5F1F4FF32D0C
S1130B80FF763F2E97FF09C09095809570956195EB
S1130B907F4F8F4F9F4FF0683F2E2AE030E0A30134
S1130BA00E940F0A882E861845C0853731F4232DFC
S1130BB02F7EB22E2AE030E025C0932D997FB92EE6
S1130BC08F36C1F018F4883579F0B5C0803719F044
S1130BD0883721F0B0C0E92FE061BE2EB4FE0DC00D
S1130BE0FB2DF460BF2E09C034FE0AC0292F2660F5
S1130BF0B22E06C028E030E005C020E130E002C09B
S1130C0020E132E0F801B7FE07C060817181828182
S1130C1093810C5F1F4F06C06081718180E090E07A
S1130C200E5F1F4FA3010E940F0A882E8618FB2D0A
S1130C30FF773F2E36FE0DC0232D2E7FA22E891462
S1130C4058F434FE0BC032FC09C0832D8E7EA82ECE
S1130C5005C0B82CA32C03C0B82C01C0B92CA4FE29
S1130C600FC0FE01E80DF11D8081803321F49A2D1F
S1130C70997EA92E09C0A2FE06C0B394B39404C001
S1130C808A2D867809F0B394A3FC11C0A0FE06C097
S1130C90B21488F4280C922C9B180EC0B21460F481
S1130CA0B60180E290E00E94BA09B394F7CFB2147F
S1130CB018F42B1802C0982C212CA4FE10C0B601E5
S1130CC080E390E00E94BA09A2FE17C0A1FC03C011
S1130CD088E790E002C088E590E0B6010CC08A2D58
S1130CE0867859F0A1FE02C08BE201C080E2A7FC25
S1130CF08DE2B60190E00E94BA09891438F4B60175
S1130D0080E390E00E94BA099A94F7CF8A94F301A1
S1130D10E80DF11D8081B60190E00E94BA098110AE
S1130D20F5CF222009F442CEB60180E290E00E9481
S1130D30BA092A94F6CFF6018681978102C08FEF13
S1130D409FEF2B96E2E10C948C0A20FD09C0FC0174
S1130D5023FD05C022FF02C0738362835183408355
S1130D60089544FD17C046FD17C0AB01BC01DA016C
S1130D70FB01AA0FBB1FEE1FFF1F1094D1F74A0FF0
S1130D805B1F6E1F7F1FCB01BA01660F771F881F81
S1130D90991F09C033E001C034E0660F771F881F34
S1130DA0991F3150D1F7620F711D811D911D089556
S1130DB00F931F93CF93DF938C01C8010E947C098A
S1130DC0EC0197FD08C00E945209892BB1F7B801C4
S1130DD0CE010E94F609CE01DF91CF911F910F91B0
S1130DE008958F929F92AF92BF92EF92FF920F93CA
S1130DF01F93CF93DF938C01D62F7A01B22E0E94DA
S1130E007C099C0133272B32310531F02D32310519
S1130E1061F48B2D8068B82ED15011F480E068C045
S1130E20C8010E947C0997FDF9CFCB2DCD7F2B2DD6
S1130E30207309F58033F9F4AA24AA94AD0E09F4B9
S1130E4043C0C8010E947C0997FD3EC09C012F7DD0
S1130E5033272835310549F4C264D250A9F1C801B9
S1130E600E947C0997FF07C02FC0B6FE02C0C26073
S1130E7001C0C261DA2D812C912C540120ED280F80
S1130E80283080F0C4FF04C0B8010E94F60919C0DC
S1130E902A3040F0C6FFF8CF2F7D3FEE320F3630B8
S1130EA098F727504C2FC501B4010E94B1064B019D
S1130EB05C01C260D15059F0C8010E947C0997FFBF
S1130EC0DDCFC1FD04C0AACF812C912C5401C7FFF2
S1130ED008C0B094A09490948094811C911CA11C8F
S1130EE0B11C2C2FB501A401C7010E94A50681E005
S1130EF0DF91CF911F910F91FF90EF90BF90AF9032
S1130F009F908F900895A0E2B0E0E9E8F7E00C9498
S1130F10730A5C01962E7A01F9018E010F5F1F4F4F
S1130F20680180E2D8011D928A95E9F7D5011396EC
S1130F308C9080E090E0612C712C30E061E070E0F6
S1130F4083FC259183FE21918F01522E211103C030
S1130F5080E090E092C02E3511F4009751F1432FB8
S1130F6050E0481759073CF42D3559F12D3219F446
S1130F70772009F103C0772009F46AC0452D46950E
S1130F8046954695D601A40FB11D452D47708B019A
S1130F9002C0000F111F4A95E2F7A8015C91452B8E
S1130FA04C93651459F0561410F45394E7CF5A94A3
S1130FB0E5CF31E004C07724739401C0712C01960D
S1130FC0BFCF772019F08E8180628E83311103C0E8
S1130FD08824839417C0F6019E012F5D3F4F8081C2
S1130FE0809581932E173F07D1F7F2CFE114F104D6
S1130FF029F0D7018C93F70131967F019A94812CC3
S11310009920F9F0C5010E947C0997FD18C0FC01E4
S1131010FF2723E0F595E7952A95E1F7EC0DFD1DF3
S1131020208130E0AC014770552702C035952795E3
S11310304A95E2F720FDDACFB5010E94F609811046
S113104087CFE114F10411F0D7011C92C80115C037
S1131050422F469546954695D601A40FB11D422FC1
S113106047708B0102C0000F111F4A95E2F7A801D7
S11310705C91452B4C93622EA2CFA096EFE00C948A
S11310808F0AA0E0B0E0E7E4F8E00C94730A6C0186
S1131090EB015A01FC0117821682512CF601E38000
S11310A0FE01E3FC8591E3FE8191182FEF01882373
S11310B009F4EEC090E00E945209892B21F0C60188
S11310C00E94D806EBCF153241F4FE01E3FC1591E2
S11310D0E3FE1191EF01153281F4C6010E947C09EF
S11310E097FDD4C0412F50E09C01332724173507C6
S11310F0A9F2B6010E94F609CBC01A3239F4E3FC16
S11311001591E3FE1191EF0101E001C000E0F12C23
S113111020ED210F2A3080F402606F2D70E080E012
S113112090E040E20E94B106F62EFE01E3FC159128
S1131130E3FE1191EF01ECCF01FF03C0F11003C0F6
S1131140A7C0FF24FA94183619F01C3651F010C0C9
S1131150FE01E3FC1591E3FE1191EF01183641F411
S113116008600460FE01E3FC1591E3FE1191EF01B8
S1131170112309F48DC0612F70E088E690E00E948D
S11311805B09892B09F484C000FD07C0F501808048
S11311909180C50102965C0102C0812C912C1E36FF
S11311A051F4F6014681578160E070E0202FC401BC
S11311B00E94A50673CF1336A9F401FD02C0FF24D3
S11311C0F394C6010E947C0997FD60C081149104C8
S11311D029F0F4018083C40101964C01FA94F110C2
S11311E0F0CF50C01B3559F49E01A4016F2DC601E8
S11311F00E948307EC01892B09F044C03EC0C6015C
S11312000E94D80697FD42C01F3661F128F41436B7
S113121039F1193651F128C0133771F0153701F13E
S113122023C08114910429F0F4016082C401019661
S11312304C01FA94FF2071F0C6010E947C093C0124
S113124097FD08C00E945209892B59F3B601C301C6
S11312500E94F60981149104A9F0F401108212C0CD
S1131260006203C0006101C00064202FA4016F2D3F
S1131270C6010E94F106811105C0F60183818073C5
S113128029F406C000FD0ACF539408CF552019F065
S1131290852D90E002C08FEF9FEFCDB7DEB7EFE072
S11312A00C948F0A91110C946D0A803219F08950B4
S11312B08550C8F70895FC010590061621F000201A
S11312C0D9F7C00108953197CF010895FC01059025
S11312D0615070400110D8F7809590958E0F9F1F34
S11312E00895FC016150704001900110D8F7809579
S11312F090958E0F9F1F0895CF93DF93EC012B8160
S113130020FF33C026FF0AC02F7B2B838E819F8151
S113131001969F838E838A8190E029C022FF0FC0AB
S1131320E881F9818081082E000C990B009719F44B
S113133020622B831AC03196F983E8830EC0EA85B4
S1131340FB85099597FF09C02B81019611F080E276
S113135001C080E1822B8B8308C02E813F812F5FE7
S11313603F4F3F832E83992702C08FEF9FEFDF917A
S1131370CF9108950F931F93CF93DF93FB012381A4
S113138021FD03C08FEF9FEF2CC022FF16C04681C2
S11313905781248135814217530744F4A081B181D8
S11313A09D012F5F3F4F318320838C9326813781AA
S11313B02F5F3F4F3783268314C08B01EC01FB0161
S11313C00084F185E02D0995892BE1F6D801169664
S11313D08D919C911797019617969C938E931697CF
S11313E0CE01DF91CF911F910F910895FB012381CD
S11313F020FF12C026FD10C08F3F3FEF930761F01E
S113140082832F7D206423832681378121503109F3
S113141037832683992708958FEF9FEF0895FA0164
S1131420AA27283051F1203181F1E8946F936E7F1F
S11314306E5F7F4F8F4F9F4FAF4FB1E03ED0B4E010
S11314403CD0670F781F891F9A1FA11D680F791F51
S11314508A1F911DA11D6A0F711D811D911DA11D62
S113146020D009F468943F912AE0269F1124301972
S1131470305D3193DEF6CF010895462F4770405D0D
S11314804193B3E00FD0C9F7F6CF462F4F70405DBC
S11314904A3318F0495D31FD4052419302D0A9F717
S11314A0EACFB4E0A6959795879577956795BA9511
S11314B0C9F700976105710508959B01AC010A2ED7
S11314C006945795479537952795BA95C9F7620FAE
S11314D0731F841F951FA01D0895992788270895B9
S11314E02F923F924F925F926F927F928F929F9230
S11314F0AF92BF92CF92DF92EF92FF920F931F931E
S1131500CF93DF93CDB7DEB7CA1BDB0B0FB6F894CE
S1131510DEBF0FBECDBF09942A88398848885F840E
S11315206E847D848C849B84AA84B984C884DF807F
S1131530EE80FD800C811B81AA81B981CE0FD11D63
S11315400FB6F894DEBF0FBECDBFED010895F89439
S1051550FFCFC7
S1131552A025730072656164002578002564005239
S11315626561642025642064617461206279746514
S1131572732066726F6D20616464726573732025D3
S11315822E33780D0A004932432073746172742039
S11315926661696C65642C207374617475733A2096
S11315A2252E32780D0A0049324320454550524FC8
S11315B24D20777269746520726571756573742044
S11315C26661696C65642C207374617475733A2066
S11315D2252E32780D0A0049324320454550524F98
S11315E24D2073657420616464726573732066614F
S11315F2696C65642C207374617475733A20252EAA
S113160232780D0A00493243207365636F6E642099
S11316127374617274206661696C65642C207374DE
S1131622617475733A20252E32780D0A00493243CB
S113163220454550524F4D20726561642072657198
S113164275657374206661696C65642C20737461BA
S11316527475733A20252E32780D0A003A252E32FB
S1131662787C252E34787C00252E32787C00493211
S11316724320454550524F4D207265616420666196
S1131682696C65642C207374617475733A20252E19
S113169232780D0A004932432073746F70206661F8
S11316A2696C65642C207374617475733A20252EF9
S11316B232780D0A0077726974650057726974652D
S11316C220256420646174612062797465732061E9
S11316D27420616464726573733A20252E33782012
S11316E20D0A00496E76616C696420636F6D6D61E9
S11316F26E642E205573652077726974652F726546
S10F1702616420696E73746561640D00FD
S9030000FC
