S00C00006D61696E2E7372656373
S11300000C9434000C943E000C943E000C943E007E
S11300100C943E000C943E000C943E000C943E0064
S11300200C943E000C943E000C943E000C943E0054
S11300300C943E000C943E000C943E000C943E0044
S11300400C943E000C943E000C943E000C943E0034
S11300500C943E000C943E000C943E000C943E0024
S11300600C943E000C943E0011241FBECFEFD8E048
S1130070DEBFCDBF0E9454000C9495000C94000088
S113008085EA91E0909389008093880083ED90E065
S113009090938B0080938A0083E28093800089E5AB
S11300A080938100229A089585EA91E090938900D3
S11300B08093880083ED90E090938B0080938A0076
S11300C083E28093800089E580938100229A4091A5
S11300D0860050918700259A86E090E02D98209123
S11300E08600309187002417350729F02D9A409116
S11300F0860050918700229AEFE5F9E03197F1F7F5
S113010000C000002298EFE5F9E03197F1F700C054
S11301100000019719F7FFEF21EE84E0F150204031
S11101208040E1F700C00000D7CFF894FFCF75
S9030000FC
