:100000000C9434000C9449000C9449000C94490061
:100010000C9449000C9449000C9449000C9449003C
:100020000C9449000C9449000C9449000C9449002C
:100030000C9449000C9449000C9449000C9449001C
:100040000C9449000C9449000C9449000C9449000C
:100050000C9449000C9449000C9449000C944900FC
:100060000C9449000C94490011241FBECFEFD8E036
:10007000DEBFCDBF11E0A0E0B1E0EAE4F1E002C0F4
:1000800005900D92AA30B107D9F70E944B000C944D
:10009000A3000C940000CF93DF93CDB7DEB72A976F
:1000A0000FB6F894DEBF0FBECDBF8091C100877E32
:1000B0008093C1008FEF87B98AB98BB983E088B983
:1000C0008AE0E0E0F1E0DE01119601900D928A9560
:1000D000E1F78E01095F1F4FBE01655F7F4F4EEF55
:1000E0003DEF5FEFCE0101967C01FE01319682E388
:1000F00090E048B9D7012C912BB9AFE3BCE9119737
:10010000F1F700C0000038B920812BB9AFE3BCE99A
:100110001197F1F700C00000019759F73196E617E3
:10012000F70729F7BFEFEB1AFB0A0E151F05E9F6D3
:100130005BB92FEF8DE399E4215080409040E1F7C7
:0A01400000C00000CFCFF894FFCFFD
:0A014A0040792430191202780010E9
:00000001FF
