:100000000C9434000C943E000C943E000C943E0082
:100010000C943E000C943E000C943E000C943E0068
:100020000C943E000C943E000C943E000C943E0058
:100030000C943E000C943E000C943E000C943E0048
:100040000C943E000C943E000C943E000C943E0038
:100050000C943E000C943E000C943E000C943E0028
:100060000C943E000C943E0011241FBECFEFD8E04C
:10007000DEBFCDBF0E9446000C948C000C940000A3
:100080009C013695279582278BB908958091C100F0
:10009000877E8093C10085B18C6185B98FEF8AB965
:1000A0001BB880E090E005C0C9011A9B19C01B9BDA
:1000B00023C09C013327A9015595479584278BB907
:1000C0001C99F2CF1BB82FEF32E547E021503040AA
:1000D0004040E1F700C0000080E090E01A99E7CFCF
:1000E00001962FEF32E547E0215030404040E1F7E4
:1000F00000C000001B99DDCF009759F001972FEF4A
:1001000032E547E0215030404040E1F700C00000B8
:0C011000D0CF8FEF90E0F3CFF894FFCF3A
:00000001FF
