:100000000C9434000C9451000C9451000C94510049
:100010000C9451000C9451000C9451000C9451001C
:100020000C9451000C9451000C9451000C9451000C
:100030000C9451000C9451000C9451000C945100FC
:100040000C9451000C9451000C9451000C945100EC
:100050000C9451000C9451000C9451000C945100DC
:100060000C9451000C94510011241FBECFEFD8E026
:10007000DEBFCDBF11E0A0E0B1E0E6E2FEE002C0ED
:1000800005900D92AA31B107D9F721E0AAE1B1E0BC
:1000900001C01D92AE32B207E1F70E949A000C94A3
:1000A00011070C9400009091C00095FFFCCF809345
:1000B000C60080E090E008958091C00087FFFCCFEB
:1000C0008091C60090E0089587E690E09093C50087
:1000D0008093C40088E18093C10086E08093C200D1
:1000E000089580E480937C0081E080937E00EAE7BD
:1000F000F0E087E080838081806880830895959513
:1001000087957795679595958795779567959B01E1
:10011000AC010E947C01089584EF91E090938700E8
:100120008093860082E8809380008AE1809381003A
:10013000219A0895CF93DF9300D000D0CDB7DEB7DA
:1001400087E690E09093C5008093C40088E1809397
:10015000C10086E08093C2008AE191E023E530E0AF
:1001600030932301209322012CE530E030932501C8
:100170002093240123E020931D0110922701109267
:10018000260190932D0180932C0190932B01809355
:100190002A01909329018093280180E480937C00B8
:1001A00081E080937E0087E080937A0080917A00DE
:1001B000806880937A0084EF91E090938700809329
:1001C000860082E8809380008AE180938100219AF2
:1001D000259A85B1807285B91FED00E215B980912D
:1001E0007A00806480937A0080917A0084FFFCCF4B
:1001F00080917A00806180937A008091780090915C
:1002000079002C01612C712CC301B2010E94B9024A
:100210006B017C0105B920E030E040EA50E40E9427
:100220006B0320E030EC4FE754E40E9418020E9478
:100230008A020E94B9024B015C0120E030E44CE1EB
:1002400056E40E946B0369837A838B839C83A501A8
:10025000940160E070E080EA90E40E94A6019B01B6
:10026000AC0169817A818B819C810E9418020E9475
:100270008A02B62EA72E982E892E20E030E040E884
:100280005AE3C701B6010E946B0320E030E04AEF59
:1002900053E40E946B036B017C0120E030E040E8F6
:1002A0005FE30E94130287FD24C0C701B6010E94CC
:1002B000DE030E948A02709387006093860080911B
:1002C0008600909187008F929F92AF92BF929F93EA
:1002D0008F931F921F925F924F9280E091E09F93C5
:1002E0008F930E9433040FB6F894DEBF0FBECDBFCC
:1002F00075CF61E070E0DFCFDB018F939F930E94A9
:100300008C01BF91AF91A29F800D911DA39F900D75
:10031000B29F900D112408950E949701A59F900D02
:10032000B49F900DA49F800D911D11240895A29F4C
:10033000B001B39FC001A39F700D811D1124911DB9
:10034000B29F700D811D1124911D08955058BB2737
:10035000AA270E94BE010C9431030E94230338F0A7
:100360000E942A0320F039F49F3F19F426F40C94DC
:1003700020030EF4E095E7FB0C941A03E92F0E948A
:10038000420358F3BA17620773078407950720F0F2
:1003900079F4A6F50C9464030EF4E0950B2EBA2FB5
:1003A000A02D0B01B90190010C01CA01A00111247B
:1003B000FF27591B99F0593F50F4503E68F11A1627
:1003C000F040A22F232F342F4427585FF3CF4695B8
:1003D00037952795A795F0405395C9F77EF41F16DA
:1003E000BA0B620B730B840BBAF09150A1F0FF0FA4
:1003F000BB1F661F771F881FC2F70EC0BA0F621F90
:10040000731F841F48F4879577956795B795F7957F
:100410009E3F08F0B0CF9395880F08F09927EE0F14
:100420009795879508950E94F60208F481E0089553
:100430000E942C020C9431030E942A0358F00E945F
:10044000230340F029F45F3F29F00C941A03511163
:100450000C9465030C9420030E94420368F39923D3
:10046000B1F3552391F3951B550BBB27AA276217B0
:100470007307840738F09F5F5F4F220F331F441FBD
:10048000AA1FA9F335D00E2E3AF0E0E832D09150F1
:100490005040E695001CCAF72BD0FE2F29D0660FDE
:1004A000771F881FBB1F261737074807AB07B0E821
:1004B00009F0BB0B802DBF01FF2793585F4F3AF027
:1004C0009E3F510578F00C941A030C9465035F3F2E
:1004D000E4F3983ED4F3869577956795B795F795AD
:1004E0009F5FC9F7880F911D9695879597F9089595
:1004F000E1E0660F771F881FBB1F62177307840731
:10050000BA0720F0621B730B840BBA0BEE1F88F73F
:10051000E09508950E944A0388F09F5798F0B92FFC
:100520009927B751B0F0E1F0660F771F881F991F28
:100530001AF0BA95C9F714C0B13091F00E94640363
:10054000B1E008950C946403672F782F8827B85F73
:1005500039F0B93FCCF3869577956795B395D9F780
:100560003EF490958095709561957F4F8F4F9F4F8A
:100570000895E89409C097FB3EF490958095709596
:1005800061957F4F8F4F9F4F9923A9F0F92F96E9DF
:10059000BB279395F695879577956795B795F11154
:1005A000F8CFFAF4BB0F11F460FF1BC06F5F7F4FF1
:1005B0008F4F9F4F16C0882311F096E911C0772303
:1005C00021F09EE8872F762F05C0662371F096E80C
:1005D000862F70E060E02AF09A95660F771F881FDB
:1005E000DAF7880F9695879597F90895990F00087F
:1005F000550FAA0BE0E8FEEF16161706E807F907F5
:10060000C0F012161306E407F50798F0621B730B8F
:10061000840B950B39F40A2661F0232B242B252B10
:1006200021F408950A2609F4A140A6958FEF811DB3
:10063000811D089597F99F6780E870E060E0089554
:100640009FEF80EC089500240A94161617061806EA
:100650000906089500240A941216130614060506C6
:100660000895092E0394000C11F4882352F0BB0F57
:1006700040F4BF2B11F460FF04C06F5F7F4F8F4FBA
:100680009F4F089557FD9058440F551F59F05F3FF5
:1006900071F04795880F97FB991F61F09F3F79F0A4
:1006A00087950895121613061406551FF2CF469526
:1006B000F1DF08C0161617061806991FF1CF8695A8
:1006C0007105610508940895E894BB27662777278C
:1006D000CB0197F908950E947E030C9431030E9488
:1006E000230338F00E942A0320F0952311F00C9484
:1006F0001A030C94200311240C9465030E944203F6
:1007000070F3959FC1F3950F50E0551F629FF00164
:10071000729FBB27F00DB11D639FAA27F00DB11D7D
:10072000AA1F649F6627B00DA11D661F829F222706
:10073000B00DA11D621F739FB00DA11D621F839F8D
:10074000A00D611D221F749F3327A00D611D231F63
:10075000849F600D211D822F762F6A2F11249F57B1
:1007600050409AF0F1F088234AF0EE0FFF1FBB1FB4
:10077000661F771F881F91505040A9F79E3F510573
:1007800080F00C941A030C9465035F3FE4F3983EE9
:10079000D4F3869577956795B795F795E7959F5F1D
:1007A000C1F7FE2B880F911D9695879597F90895AF
:1007B00019F416F40C9420030C941E040E944A03AE
:1007C000B8F39923C9F3B6F39F57550B87FF0E94DF
:1007D0002C040024A0E640EA900180585695979595
:1007E00028F4805C660F771F881F20F026173707D4
:1007F000480730F4621B730B840B202931294A2BE4
:10080000A69517940794202531254A2758F7660F97
:10081000771F881F20F026173707480730F4620B30
:10082000730B840B200D311D411DA09581F7B9017B
:10083000842F9158880F9695879508959F3F31F0A2
:10084000915020F4879577956795B795880F911DFE
:100850009695879597F9089591505040660F771FA8
:10086000881FD2F70895A0E0B0E0E9E3F4E00C942B
:10087000EA06AE014B5F5F4FFA0161917191AF01E2
:1008800080912A0190912B010E944904E2E00C948E
:100890000607ABE0B0E0EFE4F4E00C94DA066C019C
:1008A0007B018A01FC0117821682838181FFCCC102
:1008B000CE0101963C01F6019381F70193FD8591EC
:1008C00093FF81917F01882309F4BAC1853239F4FD
:1008D00093FD859193FF81917F01853229F4B601C3
:1008E00090E00E944006E7CF912C212C312CFFE1B3
:1008F000F315D8F08B3279F038F4803279F0833206
:10090000A1F4232D20611DC08D3261F0803369F484
:10091000232D216016C0832D8260382EE32DE460E4
:100920003E2E2AC0F32DF8601DC037FC2DC020EDEF
:10093000280F2A3040F08E32B9F436FC81C1232DC5
:100940002064322E19C036FE06C08AE0989E200D23
:100950001124922E11C0EAE02E9E200D1124222E89
:10096000F32DF0623F2E08C08C3621F4832D806871
:10097000382E02C0883641F4F70193FD859193FF2C
:1009800081917F018111B3CF982F9F7D9554933032
:1009900028F40C5F1F4F9FE399830DC0833631F01D
:1009A000833771F0833509F059C021C0F801808187
:1009B00089830E5F1F4F88248394912C530113C0A9
:1009C0002801F2E04F0E511CF801A080B18036FEE4
:1009D00003C0692D70E002C06FEF7FEFC5010E9478
:1009E00035064C018201F32DFF773F2E16C02801FA
:1009F00022E0420E511CF801A080B18036FE03C0F7
:100A0000692D70E002C06FEF7FEFC5010E942A06DA
:100A10004C01F32DF0683F2E820133FC1BC0822D68
:100A200090E088169906B0F4B60180E290E00E944A
:100A300040062A94F4CFF50137FC859137FE819169
:100A40005F01B60190E00E94400621102A9421E047
:100A5000821A91088114910471F7E8C0843611F06C
:100A6000893641F5F80137FE07C0608171818281C6
:100A700093810C5F1F4F08C060817181072E000CAD
:100A8000880B990B0E5F1F4FF32DFF763F2E97FFBC
:100A900009C090958095709561957F4F8F4F9F4FBE
:100AA000F0683F2E2AE030E0A3010E947C06882EE9
:100AB000861845C0853731F4232D2F7EB22E2AE0CB
:100AC00030E025C0932D997FB92E8F36C1F018F4F0
:100AD000883579F0B5C0803719F0883721F0B0C07B
:100AE000E92FE061BE2EB4FE0DC0FB2DF460BF2ED9
:100AF00009C034FE0AC0292F2660B22E06C028E0A5
:100B000030E005C020E130E002C020E132E0F80131
:100B1000B7FE07C060817181828193810C5F1F4F96
:100B200006C06081718180E090E00E5F1F4FA301DD
:100B30000E947C06882E8618FB2DFF773F2E36FEFE
:100B40000DC0232D2E7FA22E891458F434FE0BC025
:100B500032FC09C0832D8E7EA82E05C0B82CA32C94
:100B600003C0B82C01C0B92CA4FE0FC0FE01E80DD3
:100B7000F11D8081803321F49A2D997EA92E09C020
:100B8000A2FE06C0B394B39404C08A2D867809F0FF
:100B9000B394A3FC11C0A0FE06C0B21488F4280CC4
:100BA000922C9B180EC0B21460F4B60180E290E063
:100BB0000E944006B394F7CFB21418F42B1802C069
:100BC000982C212CA4FE10C0B60180E390E00E9476
:100BD0004006A2FE17C0A1FC03C088E790E002C057
:100BE00088E590E0B6010CC08A2D867859F0A1FE08
:100BF00002C08BE201C080E2A7FC8DE2B60190E06A
:100C00000E944006891438F4B60180E390E00E9407
:100C100040069A94F7CF8A94F301E80DF11D808184
:100C2000B60190E00E9440068110F5CF222009F421
:100C300042CEB60180E290E00E9440062A94F6CFB0
:100C4000F6018681978102C08FEF9FEF2B96E2E13C
:100C50000C94F606FC010590615070400110D8F725
:100C6000809590958E0F9F1F0895FC0161507040F4
:100C700001900110D8F7809590958E0F9F1F0895D1
:100C80000F931F93CF93DF93FB01238121FD03C0BB
:100C90008FEF9FEF2CC022FF16C046815781248121
:100CA00035814217530744F4A081B1819D012F5F24
:100CB0003F4F318320838C93268137812F5F3F4FB5
:100CC0003783268314C08B01EC01FB010084F1857E
:100CD000E02D0995892BE1F6D80116968D919C910E
:100CE0001797019617969C938E931697CE01DF91D6
:100CF000CF911F910F910895FA01AA27283051F141
:100D0000203181F1E8946F936E7F6E5F7F4F8F4F3C
:100D10009F4FAF4FB1E03ED0B4E03CD0670F781F9B
:100D2000891F9A1FA11D680F791F8A1F911DA11D80
:100D30006A0F711D811D911DA11D20D009F46894B9
:100D40003F912AE0269F11243019305D3193DEF661
:100D5000CF010895462F4770405D4193B3E00FD017
:100D6000C9F7F6CF462F4F70405D4A3318F0495D02
:100D700031FD4052419302D0A9F7EACFB4E0A695E5
:100D80009795879577956795BA95C9F70097610507
:100D9000710508959B01AC010A2E0694579547955D
:100DA00037952795BA95C9F7620F731F841F951F52
:100DB000A01D08952F923F924F925F926F927F9263
:100DC0008F929F92AF92BF92CF92DF92EF92FF925B
:100DD0000F931F93CF93DF93CDB7DEB7CA1BDB0B07
:100DE0000FB6F894DEBF0FBECDBF09942A883988AC
:100DF00048885F846E847D848C849B84AA84B984B3
:100E0000C884DF80EE80FD800C811B81AA81B981BE
:100E1000CE0FD11D0FB6F894DEBF0FBECDBFED01D2
:060E20000895F894FFCFD5
:100E26004F64637A7974616E6F3A20256C7520255C
:0A0E36006C7520256C750D0A000094
:00000001FF
