S00C00006D61696E2E7372656373
S11300000C9434000C943E000C943E000C943E007E
S11300100C943E000C943E000C943E000C943E0064
S11300200C943E000C943E000C943E000C943E0054
S11300300C943E000C943E000C943E000C943E0044
S11300400C943E000C943E000C943E000C943E0034
S11300500C943E000C943E000C943E000C943E0024
S11300600C943E000C943E0011241FBECFEFD8E048
S1130070DEBFCDBF0E9440000C94AA000C94000087
S1130080CF93DF93CDB7DEB7C456D1090FB6F8943A
S1130090DEBF0FBECDBF2C9A259AFE0131969E017C
S11300A02B593F4F83B1807181938FE39CE9019772
S11300B0F1F700C00000E217F307A1F780E090E039
S11300C004E610E014C02D9823B1E1E0F0E0EC0F59
S11300D0FD1FE80FF91F207120830196B8010E94CB
S11300E08200EFE3FCE93197F1F700C00000E1E0A2
S11300F0F0E0EC0FFD1FE80FF91F20812111E3CF81
S11301002D9AE2CF97FB072E16F4009407D077FDC3
S113011009D00E94960007FC05D03EF49095819585
S11301209F4F0895709561957F4F0895AA1BBB1B3F
S113013051E107C0AA1FBB1FA617B70710F0A61BE3
S1130140B70B881F991F5A95A9F780959095BC0104
S10B0150CD010895F894FFCFDE
S9030000FC
